:020000040800F2
:100000000050002021020008270200082B020008EF
:100010009D020008A1020008E9020008000000009B
:100020000000000000000000000000003103000894
:100030003503000800000000390300083D030008F4
:100040004D0300084D0300084D0300084D03000850
:100050004D0300084D0300084D0300084D03000840
:100060004D0300084D0300084D0300084D03000830
:100070004D0300084D0300084D0300084D03000820
:100080004D0300084D0300084D0300084D03000810
:100090004D0300084D0300084D0300084D03000800
:1000A0004D0300084D0300084D0300084D030008F0
:1000B0004D030008D51300084D0300084D03000848
:1000C0004D0300084D0300084D030008E90F000828
:1000D000091000084D0300084D0300084D030008F7
:1000E0004D0300084D0300084D0300080000000008
:1000F0000000000000000000000000000000000000
:1001000000000000000000005FF808F100B583B0B7
:1001100000F0AAF9304B314A1360314A1360314B79
:10012000314A32498B4204D21168196004330432D7
:10013000F7E72A4B1A682E4B9A4200D0FEE7284B6D
:100140001A682C4B9A42F9D1234B2B4A13602B4A45
:1001500013602B4B02E000221A600433294A9342B9
:10016000F9D3254B1B6813B9244B1B6803B1FEE779
:1001700000F086F9694601A800F022F9224C234BD1
:10018000E41AA4100025AC4214DC214C214BE41AE3
:10019000A4100025AC4213DC0099019801F02AF963
:1001A00005461D4C1D4BE41AA410002C0EDC2846FD
:1001B00000F0E2F8154B53F8253098470135E2E797
:1001C000144B53F8253098470135E3E7013C134BB6
:1001D00053F824309847E8E7BABADECA0000002096
:1001E000FC00002000000020102300080001002077
:1001F000785634123254769800010020B80100205D
:1002000000010020BC0100207803000878030008EA
:1002100078030008780300087803000878030008D2
:1002200008B5FFF773FF00BEFEE71EF0040F0CBF1A
:10023000EFF30880EFF309807146414A10472DE93A
:10024000F04182B004468846124B5E6B9F6B9D6AFC
:100250001B6B13F0020F03D00E4BDB6A002B0CDB81
:100260000D4800F0B5F8CDF800803B4632462946EF
:10027000204600F009F900BEFEE74BF6AB6100F046
:100280007DF90028ECD0034B4FF00042DA6202B057
:10029000BDE8F08100ED00E09C1D000800BEFEE717
:1002A0001EF0040F0CBFEFF30880EFF309807146D6
:1002B000244A10472DE9F04182B004468846084B95
:1002C0005E6B9F6B9D6A074800F082F8CDF8008056
:1002D0003B4632462946204600F0D6F800BEFEE7EF
:1002E00000ED00E0AC1D00081EF0040F0CBFEFF3A2
:1002F0000880EFF309807146134A10472DE9F04159
:1003000082B004468846084B5E6B9F6B9D6A074827
:1003100000F05EF8CDF800803B4632462946204684
:1003200000F0B2F800BEFEE700ED00E0B81D0008E6
:1003300000BEFEE700BEFEE700BEFEE7704700001D
:100340003F020008B5020008FD02000800BEFEE7FB
:1003500010230008000000200001002010230008E6
:10036000000000000000000000010020BC0100208F
:08037000000000000000000085
:10037800FEE7000008B503460C4A12685AB10B4A5A
:100388001068033323F003030344094A934206D851
:10039800064A136008BD054A06491160EFE701F0F7
:1003A8003BF80C2303604FF0FF30F3E70401002013
:1003B800004C0020BC01002001230360014B0B60AE
:1003C800704700BF040000200FB400B583B004AB31
:1003D80053F8042B01938021064801F04FF80028B8
:1003E80003DD0146034800F037F803B05DF804EB7D
:1003F80004B070470C0100202DE9F04385B0044695
:100408000F4643560BB10E461EE0042528462146EA
:10041800ABBE0446384605B0BDE8F08314F9011BAD
:1004280004AA1A4402F8101C0133AB42F6D304AAFA
:100438001344002203F8102C4FF00408E946404604
:100448004946ABBE8046761B002EE3D03546102EBB
:1004580028BF10250023E8E708B5FFF7CDFF08BD42
:1004680008B500F0FDF8024A024B9A6008BD00BFCB
:100478000000000800ED00E008B500F019F908BD1B
:10048800F8B504460D4617461E462748FFF79CFF59
:1004980021682648FFF798FF61682548FFF794FF11
:1004A800A1682448FFF790FFE1682348FFF78CFF15
:1004B80021692248FFF788FF61692148FFF784FF17
:1004C800A1692048FFF780FFE1691F48FFF77CFF1B
:1004D8001E48FFF779FF29461D48FFF775FF1D4C99
:1004E800E16A1D48FFF770FF216B1C48FFF76CFF9E
:1004F800E16B1B48FFF768FF15F0800F0AD115F470
:10050800004F0CD11748FFF75FFF06991648FFF711
:100518005BFFF8BD39461548FFF756FFEFE7314650
:100528001348FFF751FFEDE7801C0008901C0008F6
:10053800A01C0008B01C0008C01C0008D01C000843
:10054800E01C0008F01C0008001D0008101D000831
:100558001C1D000800ED00E02C1D00083C1D0008D3
:100568004C1D00087C1D0008841D00085C1D000847
:100578006C1D000883691A888A4201D000207047E0
:100588000268033A012A03D80233836101207047C5
:100598000020704782B00023019300932C4A13680F
:1005A80043F4803313602A4B1B6803F40033009331
:1005B800019B01330193009B1BB9019BB3F5A06F0D
:1005C800F1D1234B1B6813F4003F06D0012300939D
:1005D800009B012B04D002B0704700230093F7E77B
:1005E8001C4B1A6842F010021A601A6822F00302C3
:1005F8001A601A6842F002021A60A3F580535A681A
:100608005A605A685A605A6842F480625A605A6856
:1006180022F47C125A605A6842F4E8125A601A6846
:1006280042F080721A600A4B1B6813F0007FFAD000
:10063800074B5A6822F003025A605A6842F00202D5
:100648005A60034B5B6803F00C03082BF9D1C2E72F
:10065800001002400020024008B5FFF79BFF08BDCC
:1006680008B5104B1A6842F001021A6059680E4A20
:100678000A405A601A6822F0847222F480321A60A2
:100688001A6822F480221A605A6822F4FE025A601C
:100698004FF41F029A60FFF7DFFF044B4FF0006230
:1006A8009A6008BD001002400000FFF800ED00E06D
:1006B8001F4B5B6803F00C03042B15D0082B17D0D5
:1006C8001BB11C4B1C4A1A6002E01A4B1A4A1A60EA
:1006D800174B5B68C3F30313184AD35CDAB21549A6
:1006E8000B68D3400B607047124B134A1A60EFE750
:1006F8000F4A53685268C3F38343023312F4803FAE
:100708000AD00B4A526812F4003F0BD00C4A02FB85
:1007180003F3084A1360DBE7094A02FB03F3054ABF
:100728001360D5E7044A02FB03F3024A1360CFE7DC
:10073800001002401C00002000127A000C0000206B
:1007480000093D00024A138801331380704700BF37
:10075800B201002008B5294A13780133DBB21370BF
:100768000B2B0BD8254B1B780B2B10D8DFE803F08D
:100778000C101D2125292D3135393D411346002204
:100788001A70FFF7DFFFEDE71D4B1F221A7008BD37
:100798001C4B1B8813F0030F03D0194B1C221A7033
:1007A800F5E7174B1D221A70F1E7154B1F221A7037
:1007B800EDE7134B1E221A70E9E7114B1F221A703E
:1007C800E5E70F4B1E221A70E1E70D4B1F221A7046
:1007D800DDE70B4B1F221A70D9E7094B1E221A704E
:1007E800D5E7074B1F221A70D1E7054B1E221A7056
:1007F800CDE7034B1F221A70C9E700BFA8010020EC
:10080800B0010020B201002008B50F4B28221A7051
:100818002E225A7004229A700121D9700B4B1E2186
:1008280019700B4B1A700B4B07221A70FFF792FFC7
:10083800094B40F2E4721A8000F03FFC00F088FD9A
:100848001D2000F02FFB08BDAC010020B1010020E5
:10085800B4010020A8010020B201002030B583B007
:10086800002000F084FC02250195002400944FF438
:10087800FC6305221B21074800F018FD0195009430
:100888004FF4FC6319222321034800F00FFD03B045
:1008980030BD00BFD01D0008D81D00082DE9F04765
:1008A80082B005460F4690461E46092823D93C4C7F
:1008B800A4FB0034E4084FF0020ACDF804A04FF07E
:1008C8000009CDF800904FF4FC634B220A21204622
:1008D80000F0DEFC04EB84046000281ACDF804A0C4
:1008E800CDF800904FF4FC634B221621C0B200F003
:1008F800CFFC002534E04FF00209CDF80490002425
:1009080000944FF4FC634B220A21204600F0C0FCFF
:10091800CDF8049000944FF4FC634B22162128462E
:1009280000F0B6FCE5E7A5EB8503990072311C4C95
:10093800A4FB0834E40804EB84035800A8EB000087
:1009480002230193002300934FF4FC634B2201F030
:10095800FE01C0B200F09CFC0135EDB21FFA84F82C
:10096800032DE0D902250195002400944FF4FC637F
:100978004B2226210B4800EB870000F097FC06EB82
:1009880086067000019500944FF4FC6369221021DB
:10099800054C204400F08AFC02B0BDE8F08700BF97
:1009A800CDCCCCCC680000202000002008B5124B2C
:1009B8001A780132D2B21A7010490B780133DBB2BF
:1009C8000B70072A0ED00E4A127893420ED80A4BA3
:1009D8001B780C4A12880C49097808480078FFF7F8
:1009E8005DFF08BD044A00211170ECE7034B0122AA
:1009F8001A70FFF7AFFEEAE7B4010020B10100204A
:100A0800B0010020B2010020A801002008B50B4A5F
:100A180093780133DBB293700C2B02D00D2B09D0E5
:100A280008BDD37883F00103D370002BF8D1FFF70A
:100A3800BDFFF5E7014B01229A70F1E7AC010020F8
:100A480008B5074A53780133DBB253703C2B00D00A
:100A580008BD134600225A70FFF7D8FFF8E700BF19
:100A6800AC010020F0B583B004460078092840F2B4
:100A780089806A4DA5FB0030022701970026009661
:100A88004FF4FC6337224B21C00800F001FC2078AA
:100A9800A5FB0035ED0805EB85056B00C01A01972D
:100AA80000964FF4FC6337225721C0B200F0F0FBE8
:100AB80002230193002300934FF4FC6337223F2164
:100AC8003A2000F085FB6078092870D9534DA5FBC2
:100AD800003002270197002600964FF4FC63372266
:100AE8002721C00800F0D4FB6078A5FB0035ED088D
:100AF80005EB85056B00C01A019700964FF4FC635F
:100B080037223321C0B200F0C3FB02230193002334
:100B180000934FF4FC6337221B213A2000F058FB66
:100B2800A078092858D93D4DA5FB00300227019728
:100B3800002600964FF4FC6337220321C84000F0DA
:100B4800A7FBA078A5FB0035ED0805EB85056B0034
:100B5800C01A019700964FF4FC6337220F21C0B2E8
:100B680000F096FBE378002B4BD10223019300237E
:100B780000934FF4FC6337226621294800F096FB66
:100B880003B0F0BD02260196002500954FF4FC63E2
:100B980037224B21284600F07BFB207801960095F0
:100BA8004FF4FC633722572100F072FB80E70226DE
:100BB8000196002500954FF4FC633722272128462B
:100BC80000F066FB6078019600954FF4FC633722CD
:100BD800332100F05DFB98E7022601960025009579
:100BE8004FF4FC6337220321284600F051FBA0781C
:100BF800019600954FF4FC6337220F2100F048FB63
:100C0800B0E702230193002300934FF4FC633722DB
:100C18006621044800F04AFBB2E700BFCDCCCCCC3B
:100C2800CC1D0008C81D000808B5084A1378013310
:100C3800DBB213703C2B03D00448FFF713FF08BD49
:100C4800134600221A70FFF7FBFEF5E7AC010020FF
:100C580008B5FFF7D9FDFFF701FE0948FFF702FFC6
:100C6800084B1B78084A1288084909780848007810
:100C7800FFF714FE07494FF47A7000F093FB08BDA4
:100C8800AC010020B4010020B2010020A80100201E
:100C9800B1010020310C000810B401283DD018B172
:100CA800022873D010BC7047A2F11003DBB2012BED
:100CB80016D90F298CBF0023012313EAD1031ED0B4
:100CC8004F4C236801F0070080000F21814023EA80
:100CD80001032360236802FA00F018432060E1E76B
:100CE800484B186801248C4020EA040018601868F2
:100CF80002F001048C40204318605208D9E7424CA6
:100D0800236889000F20884023EA000323602068B5
:100D180002FA01F101432160C4E7A2F11003DBB23A
:100D2800012B16D90F298CBF0023012313EAD10305
:100D38001ED03648046801F007039B000F21994034
:100D480024EA01010160016802FA03F30B4303601E
:100D5800A8E72F4B186801248C4020EA040018608B
:100D6800186802F001048C40204318605208D9E743
:100D7800284C236889000F20884023EA0003236059
:100D8800206802FA01F1014321608BE7A2F1100308
:100D9800DBB2012B14D90F298CBF0023012313EADE
:100DA800D1031CD11C4B186889000F248C4020EA01
:100DB80004001860186802FA01F10143196071E72C
:100DC800164B186801248C4020EA04001860186843
:100DD80002F001048C40204318605208DBE7104CF5
:100DE800236801F0070189000F20884023EA0003E7
:100DF8002360206802FA01F10143216052E700BF35
:100E0800040801400C08014000080140040C01409E
:100E18000C0C0140000C0140001001400C10014076
:100E280004100140012813D010B102281FD07047C8
:100E380012B1012A06D07047012303FA01F1134BBE
:100E480019607047012303FA01F1114B19607047CB
:100E58003AB1012AEFD1012303FA01F10D4B1960D0
:100E68007047012303FA01F10B4B196070473AB13F
:100E7800012AE0D1012303FA01F1084B1960DAE7EE
:100E8800012303FA01F1064B196070471408014069
:100E980010080140100C0140140C014010100140D2
:100EA800141001401F2809D93B2806D800F01F005C
:100EB800012303FA00F0044B18607047012303FA7A
:100EC80000F0024B1860704704E100E000E100E028
:100ED800054B064A1A60044B1B6813F4003FFAD00E
:100EE800034B01221A607047001002408000010085
:100EF800041002401F291CD801280BD010B1022869
:100F080010D070470B480368012202FA01F1194317
:100F18000160704708480368012202FA01F1194389
:100F28000160704705480368012202FA01F119437C
:100F380001607047141002401C1002401810024053
:100F480008B5092205210020FFF7A6FE092207217E
:100F58000020FFF7A1FE112206210020FFF79CFECA
:100F6800022200210846FFF797FE0A4B4FF4407211
:100F78001A601A6842F001021A601A6842F0020206
:100F88001A601A6842F004021A601A6842F04002B5
:100F98001A6008BD0030014038B505460C460022ED
:100FA80011461046FFF73EFF0C4B9B6813F0020FEB
:100FB800FAD00A4BDD60094B9B6813F0800FFAD119
:100FC800064B9B6813F0010FFAD0044BDB682370C3
:100FD800012200210846FFF725FF38BD00300140F7
:100FE80008B5054B1B682BB1034B1B68034AD06837
:100FF800C0B2984708BD00BF8C01002000300140F6
:1010080008B5054B1B682BB1034B1B68034AD06816
:10101800C0B2984708BD00BF9001002000380040CA
:1010280010B50446012202210020FFF7FBFE024909
:101038002046FFF7B1FF10BD9501002010B504460A
:10104800000AFFF7EDFFE0B2FFF7EAFF10BD00006E
:1010580010B50446002202211046FFF7E3FE0249BC
:101068002046FFF799FF10BD94010020F8B5074608
:101078000E4615461C462A20FFF7EAFF0020FFF718
:10108800CFFF3846FFF7CCFF0020FFF7C9FF3046F7
:10109800FFF7C6FF2B20FFF7DBFF0020FFF7C0FF9D
:1010A8002846FFF7BDFF0020FFF7BAFF2046FFF7ED
:1010B800B7FF2C20FFF7CCFFF8BD08B50222114678
:1010C8000020FFF7E9FD022203210020FFF7E4FDDD
:1010D800002203211046FFF7A5FE00F011F9FFF7E3
:1010E8002FFF012203210020FFF79CFE642000F05F
:1010F8000EF9002203211046FFF794FE012000F0AC
:1011080006F9012203210020FFF78CFE642000F07D
:10111800FEF8002203211046FFF784FE642000F049
:10112800F6F8012203210020FFF77CFE4EF660202E
:1011380000F0EDF84EF6602000F0E9F81120FFF716
:1011480087FF4CF2503000F0E2F84CF2503000F0DB
:10115800DEF84CF2503000F005F93A20FFF778FF3E
:101168000520FFF75DFF2920FFF772FF08BD38B59E
:1011780005462A20FFF76CFF0020FFF751FF0020EB
:10118800FFF74EFF0020FFF74BFF7F20FFF748FFD8
:101198002B20FFF75DFF0020FFF742FF0020FFF73D
:1011A8003FFF0020FFF73CFF9F20FFF739FF2C206F
:1011B800FFF74EFF002407E0280AFFF731FFE8B2E7
:1011C800FFF72EFF0134A4B2B4F5A04FF4D338BD15
:1011D8002DE9F04F83B0814608469846BDF8307037
:1011E8009DF8345005EB45014B00C118C9B202EB1C
:1011F800C503DBB2013B0139DBB2C9B2FFF736FFE9
:10120800002301934FF0010A37E04046FFF716FF2D
:101218000134E4B2AC42F8D30136F6B2042E13D846
:1012280009EB89033344194AD35C13EA0A0F01D145
:10123800002406E00024EDE73846FFF7FFFE0134FE
:10124800E4B2AC42F8D3E7E7002404E03846FFF7FD
:10125800F5FE0134E4B2AC42F8D30BF1010B5FFAAE
:101268008BFBAB4501D20026D8E74FEA4A0A5FFA62
:101278008AFA019B0133DBB20193019B072B02D849
:101288004FF0000BEDE703B0BDE8F08FE01D00085C
:1012980010B582B030309DF814400194BDF810406C
:1012A8000094C0B2FFF794FF02B010BD2DE9F043DF
:1012B80083B004460E4691469846BDF828709DF8BE
:1012C8002C500CE00195009743464A463146FFF7FB
:1012D8007FFF013405EB450253001E44F6B2207827
:1012E80058B10928EED830300195009743464A4650
:1012F8003146C0B2FFF76CFFEBE703B0BDE8F083FF
:101308004FF0804300221A6007229A6270474FF01C
:1013180080431A6822F002021A601A6822F08002DA
:101328001A604042586200221A611A6842F00102AB
:101338001A604FF080431B6913F0010FF9D04FF08A
:1013480080431A6822F001021A6000221A6170476D
:10135800034B00221A6041F63F729A62704700BF41
:10136800000400400E4B1A6822F002021A601A6844
:1013780022F080021A604042586200221A611A68FC
:1013880042F001021A60064B1B6913F0010FFAD0F4
:10139800034B1A6822F001021A6000221A61704792
:1013A80000040040074B1960074B84221A60012291
:1013B800DA6000225A62D8621A611A6842F00102A1
:1013C8001A607047980100200004004008B5054BDA
:1013D80000221A61044B1B6813B1034B1B68984722
:1013E80008BD00BF000400409801002008B5FFF7C1
:1013F8006FFD02210846FFF77DFD00210120FFF760
:1014080079FD01210846FFF775FD0C210220FFF741
:1014180071FDFFF71DFCFEE7014B1868704700BF20
:101428009800002030B5141E05469BB0184605DA12
:101438008B234FF0FF302B601BB030BD4FF402738D
:10144800ADF80C300CBF234604F1FF33029305932B
:101458004FF6FF7300910491ADF80E3002461E9BC3
:101468006946284600F072F8431CBCBF8B232B60EA
:10147800002CE1D00022009B1A70DDE707B500932D
:1014880013460A46014603480068FFF7CBFF03B03E
:101498005DF804FB980000202DE9F0478E6882462D
:1014A8009E420C469046994637D88A8912F4906F26
:1014B80031D00223256809696F1A656905EB45056E
:1014C80095FBF3F509F101033B449D4238BF1D46E6
:1014D800530530D5294600F035FB064650B90C2394
:1014E8004FF0FF30CAF80030A38943F04003A381CE
:1014F800BDE8F0873A46216900F0B4FAA38923F4DD
:10150800906343F08003A38126613E4426604E46E3
:101518006561ED1BA5604E4500D94E4632464146F1
:10152800206800F0AAFAA36800209B1BA360236828
:101538001E442660DCE72A4600F05EFB06460028CB
:10154800E2D12169504600F0B1FAC8E72DE9F04F21
:101558009DB003938B8980461D060C4616460FD511
:101568000B696BB9402100F0EDFA2060206128B9C1
:101578000C23C8F800304FF0FF30C7E04023636108
:101588000023099320238DF8293030234FF0010BD5
:101598008DF82A3037463D4615F8013B0BB1252B0F
:1015A8003ED1B7EB060A0BD0534632462146404699
:1015B800FFF772FF013000F0A480099B53440993A0
:1015C8003B78002B00F09D8000234FF0FF32CDE9DF
:1015D8000523049307938DF853301A932F46052259
:1015E80017F8011B4F4800F02FFA049BD0B9D90611
:1015F80044BF20228DF853201A0744BF2B228DF8B0
:1016080053202A782A2A15D02F4600200A25079A1F
:10161800394611F8013B303B092B4DD9B8B10FE0E1
:101628002F46B8E73F4A3D46801A0BFA00F01843A8
:101638000490D3E7039A111D12680391002A01DB75
:10164800079204E0524243F00203079204933B7866
:101658002E2B0CD17B782A2B33D1039B02371A1DF2
:101668001B680392002BB8BF4FF0FF3305932E4D34
:1016780003223978284600F0E7F938B14023401BA7
:1016880003FA00F0049B01370343049339780622D8
:1016980026487E1C8DF8281000F0D6F9002838D08E
:1016A800234B13BB039B073323F007030833039330
:1016B800099B4B4409936DE705FB023201200F4655
:1016C800A6E700230A25194601370593384610F87E
:1016D800012B303A092A03D9002BC8D00591C6E757
:1016E80005FB012101230746F0E703AB00932246DF
:1016F800104B04A94046AFF30080B0F1FF3F81468C
:10170800D6D1A3895B063FF536AF09981DB0BDE871
:10171800F08F03AB00932246064B04A9404600F025
:1017280081F8EAE7DB220008E1220008E522000848
:1017380000000000A11400082DE9F04791461F465B
:101748008A680B6906469342B8BF1346C9F8003049
:1017580091F843200C46DDF8208012B10133C9F816
:1017680000302368990642BFD9F800300233C9F81F
:101778000030256815F0060507D104F1190AE36859
:10178800D9F800209B1AAB4229DC94F84330226830
:10179800003318BF012392062ED404F143023946C0
:1017A8003046C047013021D02368E56803F00603BE
:1017B800042B18BF0025D9F800204FF0000908BFF6
:1017C800AD1AA368226908BF25EAE5759342C4BF2C
:1017D8009B1AED181A344D451AD1002008E0012350
:1017E800524639463046C047013003D14FF0FF30EA
:1017F800BDE8F0870135C2E73020E11881F84300E1
:101808005A1C94F845102244023382F84310C4E766
:101818000123224639463046C0470130E6D009F157
:101828000109D8E72DE9F04301F1430C0C46097E84
:1018380085B06E291746064698460C9A00F0B38084
:1018480022D8632936D00AD8002900F0B98058294F
:1018580000F0838004F1420584F8421032E06429E4
:1018680001D06929F6D120681368050603F104013F
:101878002AD51B681160002B03DA2D225B4284F8FD
:1018880043206F480A2239E0732900F09D8008D868
:101898006F2920D07029DDD1236843F0200323600D
:1018A80003E0752917D07829D4D17823654884F8BE
:1018B800453055E0136804F14205191D1B68116095
:1018C80084F8423001238CE01B6810F0400F11604F
:1018D80018BF1BB2CFE713682568181D10602806CB
:1018E80001D51B6802E06806FBD51B886F2914BF69
:1018F8000A2208225248002184F843106568002D06
:10190800A560C0F29580216821F004012160002BB8
:101918003DD1002D40F08E806546082A0BD1236802
:10192800DB0708D5236962689A42DEBF302305F8D1
:10193800013C05F1FF35ACEB05032361CDF80080D0
:101948003B4603AA21463046FFF7F6FE01304DD14B
:101958004FF0FF3005B0BDE8F083394884F84510F2
:10196800136821681D1D1B6815600A060BD5CA0778
:1019780044BF41F0200121601BB9226822F02002F7
:1019880022601022B7E74D0648BF9BB2EFE76546D5
:10199800B3FBF2F102FB1133C35C05F8013D0B46C2
:1019A8000029F5D1B9E713682568181D6169106029
:1019B80028061B6801D5196002E06A06FBD5198064
:1019C800002365462361B9E71368191D11601D6876
:1019D80062680021284600F037F808B1401B6060B3
:1019E80063682361002384F84330A7E723692A4604
:1019F80039463046C0470130AAD023689B0713D424
:101A0800E068039B9842B8BF1846A3E701234A46FB
:101A180039463046C04701309AD00135E368039A09
:101A28009B1AAB42F2DCEBE7002504F11909F5E754
:101A3800002BACD1037804F1420584F842306CE7FE
:101A4800EC220008FD22000810B5C9B202449042F9
:101A5800034601D1002303E01C7801308C42F6D103
:101A6800184610BD10B5431E0A44914200D110BD5E
:101A780011F8014B03F8014FF7E7884210B501EB65
:101A8800020307D8421E99420AD011F8014B02F806
:101A9800014FF8E78342F5D98118D21AD34200D111
:101AA80010BD13F8014D01F8014DF7E738B50546AB
:101AB800002943D051F8043C0C1F002BB8BFE41890
:101AC80000F0D0F81E4A1368104633B963601460FA
:101AD8002846BDE8384000F0C6B8A3420BD92168B3
:101AE8006218934201BF1A685B68521822606360EB
:101AF8000460EDE713465A680AB1A242FAD9196898
:101B08005818A0420BD12068014458188242196025
:101B1800DED110685268014419605A60D8E702D9CA
:101B28000C232B60D4E7206821188A4201BF116872
:101B380052680918216062605C60C9E738BD00BF5F
:101B48009C01002070B5CD1C25F0030508350C2D2F
:101B580038BF0C25002D064601DBA94203D90C230A
:101B68003360002070BD00F07DF8214A14682146DA
:101B780091B9204C23681BB9304600F063F8206007
:101B88002946304600F05EF8431C24D10C23304629
:101B9800336000F068F8E4E70B685B1B18D40B2B84
:101BA8000FD90B60CC18CD50304600F05CF804F12A
:101BB8000B00231D20F00700C31AD3D05A42E2506D
:101BC800D0E74B688C4216BF636013600C46EBE7A6
:101BD8000C464968CCE7C41C24F00304A04205D095
:101BE800211A304600F02EF80130CFD02560DBE70F
:101BF8009C010020A0010020F8B5074614460E46B7
:101C080021B9BDE8F8401146FFF79CBF22B9FFF79C
:101C18004DFF25462846F8BD00F026F8A0420FD211
:101C280021463846FFF78EFF05460028F2D0314698
:101C38002246FFF717FF31463846FFF737FFE9E737
:101C48003546E7E738B50023054C054608462360C6
:101C5800FEF790FB431C02D1236803B12B6038BD0B
:101C6800A40100207047704751F8043C181F002B4E
:101C7800BCBF0B58C0187047537461636B20667201
:101C8800616D653A0A000000205230203D20202571
:101C98003038580A00000000205231203D2020250D
:101CA8003038580A00000000205232203D202025FC
:101CB8003038580A00000000205233203D202025EB
:101CC8003038580A0000000020523132203D2025CB
:101CD8003038580A00000000204C52203D202025B2
:101CE8003038580A00000000205043203D202025AD
:101CF8003038580A0000000020505352203D20255B
:101D08003038580A000000004653522F4641523AD4
:101D18000A0000002043465352203D202025303839
:101D2800580A00002048465352203D2020253038CC
:101D3800580A00002044465352203D2020253038C0
:101D4800580A00002041465352203D2020253038B3
:101D5800580A0000204D4D464152203D202530387C
:101D6800580A00002042464152203D2020253038A4
:101D7800580A00004D6973630A000000204C522F76
:101D88004558435F52455455524E3D2025303858EA
:101D98000A0000005B486172644661756C745D0AF4
:101DA800000000005B4275734661756C745D0A0043
:101DB8005B55736167654661756C745D0A00000068
:101DC800504D0000414D00004469676974616C0022
:101DD800436C6F636B00000000000000003E5B4F27
:101DE8005B3E3E6B4F6B3E1C3E7C3E1C183C7E3C73
:101DF800181C577D571C1C5E7F5E1C00183C180081
:101E0800FFE7C3E7FF0018241800FFE7DBE7FF3010
:101E1800483A060E2629792926407F050507407F7E
:101E280005253F5A3CE73C5A7F3E1C1C08081C1CF1
:101E38003E7F14227F22145F5F005F5F06097F01E7
:101E48007F006689956A606060606094A2FFA294D2
:101E580008047E040810207E201008082A1C0808A0
:101E68001C2A08081E101010100C1E0C1E0C3038EE
:101E78003E3830060E3E0E06000000000000005FEF
:101E880000000007000700147F147F14242A7F2A0B
:101E980012231308646236495620500008070300CD
:101EA800001C2241000041221C002A1C7F1C2A0819
:101EB800083E08080080703000080808080800007C
:101EC80060600020100804023E5149453E00427FF0
:101ED800400072494949462141494D331814127F3F
:101EE8001027454545393C4A4949314121110907DF
:101EF8003649494936464949291E00001400000060
:101F08004034000000081422411414141414004131
:101F180022140802015909063E415D594E7C1211EE
:101F2800127C7F494949363E414141227F41414126
:101F38003E7F494949417F090909013E41415173A1
:101F48007F0808087F00417F41002040413F017F12
:101F5800081422417F404040407F021C027F7F04DA
:101F680008107F3E4141413E7F090909063E415123
:101F7800215E7F09192946264949493203017F0113
:101F8800033F4040403F1F2040201F3F4038403F14
:101F9800631408146303047804036159494D43002A
:101FA8007F4141410204081020004141417F040261
:101FB80001020440404040400003070800205454F8
:101FC80078407F28444438384444442838444428D6
:101FD8007F385454541800087E090218A4A49C7829
:101FE8007F0804047800447D40002040403D007F85
:101FF8001028440000417F40007C047804787C0865
:102008000404783844444438FC1824241818242438
:1020180018FC7C08040408485454542404043F441D
:10202800243C4040207C1C2040201C3C4030403C4C
:1020380044281028444C9090907C4464544C4400AC
:102048000836410000007700000041360800020110
:102058000204023C2623263C1EA1A161123A4040FC
:10206800207A38545455592155557941215454787A
:1020780041215554784020545579400C1E52721213
:10208800395555555939545454593955545458009B
:1020980000457C410002457D420001457C40F02915
:1020A8002429F0F0282528F07C5455450020545464
:1020B8007C547C0A097F49324949493232484848A8
:1020C80032324A4848303A4141217A3A42402078EF
:1020D800009DA0A07D39444444393D4040403D3CEA
:1020E80024FF2424487E4943662B2FFC2F2BFF090D
:1020F80029F620C0887E0903205454794100004401
:102108007D413048484A32384040227A007A0A0AEB
:10211800727D0D19317D2629292F2826292929265E
:1021280030484D4020380808080808080808382FA3
:1021380010C8ACBA2F102834FA00007B000008142D
:102148002A142222142A1408AA005500AAAA55AA59
:1021580055AA000000FF00101010FF00141414FF0F
:10216800001010FF00FF1010F010F0141414FC0001
:102178001414F700FF0000FF00FF1414F404FC140B
:102188001417101F10101F101F1414141F00101004
:1021980010F0000000001F101010101F1010101079
:1021A800F010000000FF101010101010101010FF99
:1021B80010000000FF140000FF00FF00001F1017B0
:1021C8000000FC04F414141710171414F404F40099
:1021D80000FF00F714141414141414F700F714145F
:1021E80014171410101F101F141414F4141010F0E6
:1021F80010F000001F101F0000001F14000000FC5A
:10220800140000F010F01010FF10FF141414FF1445
:102218001010101F00000000F010FFFFFFFFFFF07C
:10222800F0F0F0F0FFFFFF0000000000FFFF0F0FCD
:102238000F0F0F38444438447C2A2A3E147E020289
:102248000606027E027E0263554941633844443CD7
:1022580004407E201E2006027E020299A5E7A59969
:102268001C2A492A1C4C7201724C304A4D4D3030A0
:1022780048784830BC625A463D3E494949007E018B
:1022880001017E2A2A2A2A2A44445F444440514AAA
:10229800444040444A51400000FF0103E080FF00F1
:1022A8000008086B6B083612362436060F090F062D
:1022B800000018180000001010003040FF01010055
:1022C8001F01011E00191D1712003C3C3C3C000078
:1022D800000000232D302B2000686C4C00656667D9
:1022E8004546470030313233343536373839414284
:1022F8004344454600303132333435363738396156
:06230800626364656600DB
:102310007856341208010020000000000000000080
:1023200000000000010203040607080900A24A0495
:10233000536174757264617920002053756E646115
:1023400079202000204D6F6E646179202000205498
:1023500075657364617920005765646E65736461A7
:10236000790054687572736461792000204672693F
:10237000646179202000FFFF4A414E00464542003B
:102380004D415200415052004D4159004A554E00B6
:102390004A554C0041554700534550004F435400A7
:1023A0004E4F5600444543009C00002000000000B2
:1023B000000000000000000000000000000000001D
:1023C000000000000000000000000000000000000D
:1023D00000000000000000000000000000000000FD
:1023E00000000000000000000000000000000000ED
:1023F00000000000000000000000000000000000DD
:102400000000000000000000000000003254769838
:040000050800010DE1
:00000001FF
